:100000000C9448000C9470000C9470000C947000D8
:100010000C9470000C9470000C9470000C947000A0
:100020000C9470000C9470000C9470000C942121BE
:100030000C94FC200C9470000C9470000C947000D4
:100040000C9470000C9470000C942B220C94700093
:100050000C9470000C9470000C9470000C94700060
:100060000C9470000C9470000C9470000C94700050
:100070000C9470000C9470000C9470000C94700040
:100080000C9470000C9470000C9470001E085708BB
:1000900011241FBECFEFD0E1DEBFCDBF16E0A0E040
:1000A000B1E0ECEEF4E502C005900D92A631B10787
:1000B000D9F72EE0A6E1B6E001C01D92A436B20742
:1000C000E1F710E0C7E4D0E004C02197FE010E94F0
:1000D0001A26C634D107C9F70E94BD070C94692AB5
:1000E0000C94AE07089586B1866286B93E9A389A16
:1000F000EEE8F0E0808181608083379A369A80E074
:1001000090E0089587B1807F87B987B1682B67B980
:1001100080E090E0089560FF02C0DC9A01C0DC98A6
:1001200061FF02C0DB9A01C0DB9862FF02C0DA9A6D
:1001300001C0DA9863FF02C0D99A01C0D9988FE153
:100140009EE40197F1F700C00000369A3699FECF81
:1001500024B165B170E0762F6627CB01770FAA0B2B
:10016000BB0BBC01CD01622B0895CF92DF92EF92C1
:10017000FF922BB381E090E0BC0102C0660F771FB5
:100180004A95E2F7AB01862F809582238BBB369A86
:100190008FE292E00197F1F700C000003699FECFA0
:1001A00064B1C62ED12CE12CF12C25B19AE69A959A
:1001B000F1F700C08BB3482B4BBB8FE19EE4019756
:1001C000F1F700C0000030E0922F8827092E000CC4
:1001D000AA0BBB0BBC01CD016C297D298E299F295F
:1001E000FF90EF90DF90CF9008950F931F93369A72
:1001F0003699FECF64B1462F50E060E070E025B143
:100200008FE19EE40197F1F700C0000030E0922FEB
:100210008827092E000CAA0BBB0B8C019D01042B17
:10022000152B262B372BC901B8011F910F9108956B
:1002300028ECFC01258308954F925F926F927F9284
:100240008F929F92AF92BF92CF92DF92EF92FF92E6
:100250000F931F93CF93DF93DC0182B1E1E0F0E0D5
:10026000062E02C0EE0FFF1F0A94E2F78E2B82B912
:1002700083B18E2B83B97FE78AE196E0715080408D
:100280009040E1F700C0000093B17E2F7095972356
:1002900093B9CFE3DCE92197F1F700C0000093B1F7
:1002A0009E2B93B982B1872382B9DAE6DA95F1F70A
:1002B00000C075ED7A95F1F7000081B190E0062E4F
:1002C00002C0959587950A94E2F780FFA7C085ED57
:1002D0008A95F1F7000081B190E002C0959587956D
:1002E0006A95E2F780FD9AC085E0ED0119928A9542
:1002F000E9F73D018D010B5F1F4F0F2EF7E0CF2E69
:10030000F02D912C812C44244394512CD12CA12CE0
:1003100038C0DFEFED1AFD0A15966C91159770E065
:100320006E157F0518F47AC0ED2CFA2C61B170E0DF
:100330006E237F23672B69F360E56A95F1F761B15E
:1003400070E06E237F23672B41F0B201082E02C0BC
:10035000660F771F0A94E2F7B62A61B170E06E2348
:100360007F23672BD1F715966C911597662309F4B7
:1003700055C00197C8F6E301B9923E01C017D107F5
:1003800021F08C2D992DB82CCFCF82B18E2B82B934
:1003900083B1E82BE3B9E7ECF0E03197F1F700C067
:1003A0000000EC9111966C911197962F9E0F12966A
:1003B0008C911297980F13968C911397890F14961E
:1003C0009C91149789132AC0E9018A017D0170E08C
:1003D0007E2B80E090E00E94DB2620E030E040E2CF
:1003E00051E40E943A260E94AC2679836883E70193
:1003F0006A8170E0762F66278B81682B80E090E021
:100400000E94DB2620E030E040E251E40E943A26E0
:100410000E94AC26F8017183608302C080E090E006
:10042000DF91CF911F910F91FF90EF90DF90CF90D0
:10043000BF90AF909F908F907F906F905F904F9004
:1004400008950E941C010895089582E08093700031
:1004500080E090E00895E4E7F0E0108284EA808391
:1004600080818823ECF780917100887F883019F0B3
:1004700086E680939C0080E090E0089584EA809373
:100480007400E4E7F0E080818823ECF7809171004C
:10049000887F803119F086E680939C0080E090E0B0
:1004A00008956093730084E880937400E4E7F0E0BB
:1004B00080818823ECF780917100887F883119F062
:1004C00086E680939C0080E090E00895609373003E
:1004D00084E880937400E4E7F0E080818823ECF7FF
:1004E00080917100887F803419F086E680939C00AB
:1004F00080E090E008956093730084E88093740036
:10050000E4E7F0E080818823ECF780917100887F38
:10051000883219F086E680939C0080E090E0089590
:1005200084E880937400E4E7F0E080818823ECF7AE
:1005300080917100887F883519F086E680939C0051
:1005400080917300089584E9809374000895FC01FC
:10055000E355FC4F10823996108211821282138269
:10056000349688E190E091838083089508959F9266
:10057000AF92BF92CF92DF92EF92FF920F931F93B1
:10058000CF93DF93EC016B015A0145E0B501C60141
:100590000E949808182F44E0B501C6010E949808EF
:1005A000082F43E0B501C6010E949808F82E42E0EA
:1005B000B501C6010E949808E82E41E0B501C601C8
:1005C0000E949808982E40E0B501C6010E94980844
:1005D000FE01B996DF010D900020E9F7BD016E1B09
:1005E0007F0B282F22952F7030E0A901440F551F53
:1005F000220F331F220F331F220F331F240F351FEB
:100600008F70A901480F511DCA019F934F93492D27
:1006100042954F7050E09A01220F331F440F551F2F
:10062000440F551F440F551F240F351F892D8F7000
:10063000280F311D3F932F934E2D4F7742954F70CA
:1006400050E09A01220F331F440F551F440F551FCE
:10065000440F551F240F351F8E2D8F70280F311D0D
:100660003F932F932F2D22952F7030E0C901880FD3
:10067000991F220F331F220F331F220F331F820FA8
:10068000931F2F2D2F70820F911D9F938F93202FDB
:1006900022952F7030E0C901880F991F220F331F58
:1006A000220F331F220F331F820F931F0F70800FF3
:1006B000911D9F938F93412F407F50E05595479513
:1006C0005595479555954795559547959A01220F0C
:1006D000331F440F551F440F551F440F551F240F40
:1006E000351F1F70210F311D3F932F93EF56FC4F85
:1006F00081818F9380818F9384EA91E09F938F9380
:10070000685D7F4FC60FD71FDF93CF930E9491275D
:100710004DB75EB74E5E5F4F0FB6F8945EBF0FBE2B
:100720004DBF80E090E0DF91CF911F910F91FF903E
:10073000EF90DF90CF90BF90AF909F9008950F9370
:100740001F93CF93DF9300D000D0CDB7DEB78C01DD
:10075000CB01642F70E09E012F5F3F4FAE014D5FD4
:100760005F4F0E942102F801B996DF010D90002031
:10077000E9F79D012E1B3F0B8A818F9389818F930F
:100780008C818F938B818F9389EC91E09F938F93D2
:10079000285D3F4FC801820F931F9F938F930E9444
:1007A00091270FB6F894DEBF0FBECDBF80E090E07A
:1007B0000F900F900F900F90DF91CF911F910F919D
:1007C0000895AF92BF92CF92DF92EF92FF920F9374
:1007D0001F93CF93DF937C016B0163E0C6010E94FE
:1007E0008200A12CB12C8701075D1F4FCCECD1E01A
:1007F000B501C6010E948B00F80101900020E9F7C5
:100800009F01201B310B9F938F937F936F93DF93F7
:10081000CF93285D3F4F2E0D3F1D3F932F930E9496
:1008200091278FEFA81AB80A8DB79EB708960FB612
:10083000F8949EBF0FBE8DBF90E1A916B104C1F61A
:1008400080E090E0DF91CF911F910F91FF90EF90AA
:10085000DF90CF90BF90AF900895EF92FF920F93EB
:100860001F93CF93DF938C017B01C42FD22F642F72
:10087000C7010E9482004D2F50E06C2F70E0C7012D
:100880000E94B500F801B996DF010D900020E9F74C
:100890009D012E1B3F0B9F938F937F936F938CEC47
:1008A00091E09F938F93285D3F4FC801820F931F64
:1008B0009F938F930E9491278DB79EB708960FB68E
:1008C000F8949EBF0FBE8DBF80E090E0DF91CF9186
:1008D0001F910F91FF90EF900895EF92FF920F9369
:1008E0001F93CF938C017B01C42F642FC7010E94FB
:1008F00082006C2F70E0C7010E94F500F801B996E4
:10090000DF010D900020E9F79D012E1B3F0B9F9307
:100910008F937F936F938CEC91E09F938F93285DDF
:100920003F4FC801820F931F9F938F930E9491277F
:100930008DB79EB708960FB6F8949EBF0FBE8DBFB9
:1009400080E090E0CF911F910F91FF90EF9008957C
:10095000EF92FF920F931F93CF93DF93EC01822FBF
:10096000932FDE01AF57BD4FFD0101900020E9F745
:100970009F012A1B3B0B5F934F939F938F931F9372
:100980000F93FF92EF9280ED91E09F938F93205809
:100990003D4F2C0F3D1F3F932F930E949127C3552E
:1009A000DC4F81E088838DB79EB70C960FB6F89424
:1009B0009EBF0FBE8DBF80E090E0DF91CF911F9171
:1009C0000F91FF90EF900895CF92DF92EF920F93E7
:1009D0001F93CF93DF93EA01B9019801AC01475D02
:1009E0005F4FFA0101900020E9F7E41BF50BE80FD7
:1009F000F91F0F2EFDE0CF2EFAE0DF2EE12CF02DB7
:100A0000C0A6D1A6E2A6F894CE010E94C720789491
:100A100080E090E0DF91CF911F910F91EF90DF90F8
:100A2000CF900895EF92FF920F931F93CF93DF9390
:100A3000EB01BA01AC01475D5F4FFA010190002064
:100A4000E9F73197E41BF50B780189019F01CE018D
:100A50000E9423259927DF91CF911F910F91FF903D
:100A6000EF90089589962CE231E0FC01A9011192E2
:100A700041505040E1F780E090E008950F931F93BC
:100A8000CF93DF93FC01E355FC4F2081213029F502
:100A9000EC018C010F571D4FE458F340DF010D901E
:100AA0000020E9F79D012E1B3F0BC9018896B80174
:100AB0008C0F9D1F0E947027C355DC4F1882F801D0
:100AC00001900020E9F73197AF01401B510B60E026
:100AD00070E0C8010E94692712C0FC01B996DF01CD
:100AE0000D900020E9F7AE1BBF0B9896A80FB91F19
:100AF0008BE0E9EDF1E001900D928A95E1F7DF914D
:100B0000CF911F910F9108958F929F92AF92BF92B4
:100B1000CF92DF92EF92FF920F931F93CF93DF93C9
:100B2000EC016B015A0149010E943205A401B50193
:100B3000CE010E94B70245E0B801CE010E949F039A
:100B400044E0B801CE010E949F03B701CE010E948C
:100B5000E10326E041E0B701CE010E942D0425E02B
:100B600040E0B701CE010E942D0442E0B701CE0162
:100B70000E946D04B601CE010E943E0580E090E027
:100B8000DF91CF911F910F91FF90EF90DF90CF9069
:100B9000BF90AF909F908F9008950F930DE023E04A
:100BA00048E56EE07DE085E09DE00E94610820E080
:100BB0004CE56EE07DE085E09DE00E94610809E182
:100BC00021E048E56EE07DE085E09DE00E9461085F
:100BD00002E322E04CE56EE07DE085E09DE00E94CE
:100BE00061080DE020E04EE56EE07DE085E09DE0EF
:100BF0000E94610822E04AE56EE07DE085E09DE02C
:100C00000E94610809E122E04EE56EE07DE085E0AA
:100C10009DE00E9461080FEF21E04EE56EE07DE06F
:100C200085E09DE00E94610821E04AE56EE07DE0FC
:100C300085E09DE00E94610820E04AE56EE07DE0ED
:100C400085E09DE00E94610823E04EE56EE07DE0D6
:100C500085E09DE00E94610823E04AE56EE07DE0CA
:100C600085E09DE00E94610820E048E56EE07DE0BF
:100C700085E09DE00E94610809E122E048E56EE020
:100C80007DE085E09DE00E9461080FEF21E04CE5EA
:100C90006EE07DE085E09DE00E9461080F9108957F
:100CA0000F931F93CF93DF93CDB7DEB72A970FB67D
:100CB000F894DEBF0FBECDBF41E063EF71E0CE011F
:100CC00041960E940B16882331F064EE71E080E1BA
:100CD0009DE00E94FD210CE716E00BC0F801019099
:100CE0000020E9F7CF01BE016F5F7F4F01970E949F
:100CF0007027AE014F5E5F4F6AE070E0CE01019653
:100D00000E940E1C892B51F741E06FEF71E0CE017C
:100D100041960E940B16882331F06CE072E080E16E
:100D20009DE00E94FD2108E116E00BC0F801019052
:100D30000020E9F7CF01BE016F5F7F4F01970E944E
:100D40007027AE014F5E5F4F6AE070E0CE01019602
:100D50000E940E1C892B51F780E090E02A960FB676
:100D6000F894DEBF0FBECDBFDF91CF911F910F91E1
:100D70000895EF92FF920F931F93CF93C0E02CC082
:100D80000F2EF1E1EF2EFDE0FF2EF02D06E01DE02D
:100D90002EE03DE04FE05DE060E17DE080E097E047
:100DA0000E9484050EE811E020EE36E04CEB5AE09C
:100DB00060E17DE080E097E00E94E404CF5FC53011
:100DC00058F01E9A2FEF84E39CE021508040904021
:100DD000E1F700C000001E9828E136E04CE756E03D
:100DE00060E17DE084E09DE00E944823892B41F290
:100DF000CF911F910F91FF90EF900895EF92FF9286
:100E00000F931F930F2EF1E1EF2EFDE0FF2EF02D3B
:100E100006E01DE02EE03DE04FE05DE060E17DE0BA
:100E200080E097E00E948405009116061091170655
:100E300020E031E040E15DE064E07DE080E097E0CB
:100E40000E941205892B11F40E94B9060EE811E0E8
:100E500020EE36E04CEB5AE060E17DE080E097E088
:100E60000E94E4041F910F91FF90EF9008950E945B
:100E700083086CE070E080E19DE00E94D5216CE089
:100E800070E080E19DE00E94E22160E172E080E19B
:100E90009DE00E94FD2181E19DE00E9473008EE0B3
:100EA0009DE00E9425020E94CD052FEF81EE94E087
:100EB000215080409040E1F700C000008EE891E0B2
:100EC0009F938F938DB79EB780970FB6F8949EBF70
:100ED0000FBE8DBFADB7BEB7119680E2E0EEF6E073
:100EE00001900D928A95E1F78CEB9AE00E949E208A
:100EF0008DB79EB782960FB6F8949EBF0FBE8DBF7A
:100F000080970FB6F8949EBF0FBE8DBFADB7BEB72A
:100F1000119680E2E0EEF6E001900D928A95E1F7FD
:100F20000E9450068DB79EB780960FB6F8949EBF6C
:100F30000FBE8DBF6CE776E080E19DE00E94FD2151
:100F400068E176E080E19DE00E94FD2178940E94B6
:100F5000B9068CE09DE00E94A62108951F920F9291
:100F60000FB60F9211248F9381E280939C008F9192
:100F70000F900FBE0F901F9018952FEF39E648E1A4
:100F8000215030404040E1F700C000000E94370788
:100F90008CE09DE00E94B9214B015C018CE09DE05A
:100FA0000E94B9216B017C018CE09DE00E94B92177
:100FB000DC01CB0188199909AA09BB09893E934034
:100FC000A105B10510F00E94FE068CE09DE00E9494
:100FD000B921DC01CB018C199D09AE09BF09813310
:100FE0009547A105B10500F18CE09DE00E94952197
:100FF0002B013C018CE09DE00E94B9219B01AC01DA
:101000002C193D094E095F0979018A01A30192015A
:1010100060E17DE080E097E00E94A8048CE09DE024
:101020000E94B9216B017C013FEF40E752E0315053
:1010300040405040E1F700C00000B6CF81E19DE0A4
:101040000E94720080E19DE00E94D4218FE09DE02B
:101050000E9497088EE09DE00E9424028DE09DE0B2
:101060000E94FB208CE09DE00E94942186E09DE0A0
:101070000E94180185E09DE00E94600884E09DE0E8
:101080000E945D228CEB9AE00E949C2080E097E019
:101090000E94A702E0E0F1E001900020E9F731971B
:1010A000E050F140F0931706E0931606089580E0B3
:1010B00097E00E94B6028CEB9AE00E949D20089572
:1010C0000895FF920F931F93CF93DF93EB01F42EBC
:1010D000122FCB010E942B026F2DCE010E945102D4
:1010E000612FCE010E947B02602FCE010E947B0205
:1010F000CE010E94A30280E090E0DF91CF911F918A
:101100000F91FF9008958EE78ABB1BBA87E087BBDB
:1011100083E088BBC29814BA15BA83E881BB82BB4E
:1011200080E482B980E383B9109261000895089544
:101130001F93CF93DF93EB01142FCB010E942B025F
:101140006EEDCE010E945102612FCE010E947B0202
:10115000CE010E943E026FEDCE010E946602CE01DA
:101160000E949002182FCE010E94A302812FDF91CE
:10117000CF911F910895CF93DF9342305105C0F076
:10118000DB01FC019A01CD91DD91C193D1932250F5
:10119000310922303105B8F79A01225031092E7FEA
:1011A0002E5F3F4F820F931F620F731F41705527B1
:1011B0004115510549F0DB01FC01480F591F9D9174
:1011C0009193E417F507D9F7DF91CF910895411571
:1011D000510539F0FC01840F951F6193E817F90759
:1011E000E1F708950F931F93DC01FB01628D738D6E
:1011F00080E090E02C91233059F40489158920E097
:1012000030E0980111270027602B712B822B932B44
:101210001F910F910895CF93DF93EC01A881B981BD
:10122000109731F14C91413258F04A3351F1FD01A0
:1012300031969F019191913228F09A33D1F704C0F1
:10124000942F9D019A3381F4CD0101962817390717
:1012500091F4242F30E0C901C0978230910570F4D9
:101260001296B983A8830FC08091120D90E00BC035
:101270008FEF9FEF08C08FEF9FEF05C08FEF9FEFBD
:1012800002C09D01E1CFDF91CF9108958F929F928F
:10129000AF92BF92CF92DF92EF92FF920F931F9384
:1012A000CF93DF93FC012481222309F446C0EC0193
:1012B000C6A4D7A4E0A8F1A85C01F2E3AF0EB11C6C
:1012C00001E010E0A7019601B50189810E947A1F13
:1012D000811135C01C828AA19BA1ACA1BDA1B7011F
:1012E000A601481B590B6A0B7B0B8A8D9B8DAC8D1D
:1012F000BD8D481759076A077B0718F58B80912C1D
:1013000082E088169104F8F08A8D9B8DAC8DBD8D9E
:10131000C80ED91EEA1EFB1E01E010E0A7019601CF
:10132000B50189810E947A1FE1E08E1A9108F1E0EF
:101330008F16910449F780E007C080E005C081E086
:1013400003C080E001C080E0DF91CF911F910F9139
:10135000FF90EF90DF90CF90BF90AF909F908F90D5
:1013600008958F929F92AF92BF92FF920F931F9317
:10137000CF93DF93EC014A015B018EA59FA5A8A93D
:10138000B9A984179507A607B707E9F0CE010E940F
:101390004609F82E811118C001E010E0A501940162
:1013A000BE016E5C7F4F89810E941E1F882331F031
:1013B000FF24F39488248A94982C54018EA69FA627
:1013C000A8AAB9AA01C0F12C8F2DDF91CF911F914E
:1013D0000F91FF90BF90AF909F908F900895CF9303
:1013E000DF93EC011C828FEF9FEFDC018EA79FA79C
:1013F000A8ABB9ABCE010E94B109811123C0FE0197
:10140000E05DFD4F8081918185359A4AE9F4E85C81
:10141000F14080819181A281B381BB2786349144C0
:10142000A445B10599F0CC57DF4F488159816A81B5
:101430007B81772781E0463451446445710539F456
:1014400080E005C083E003C082E001C080E0DF915E
:10145000CF9108950097C9F0DC01ED91FC911197AF
:101460003097A9F020812223A1F02681378112969E
:101470008D919C9113972817390769F481810E94F7
:101480002E1E80FF0AC089E0089589E0089589E052
:10149000089589E0089589E0089580E008952F92E5
:1014A0003F924F925F926F927F928F929F92AF92F4
:1014B000BF92CF92DF92EF92FF920F931F93CF9341
:1014C000DF93CDB7DEB76D970FB6F894DEBF0FBED2
:1014D000CDBF6C01CB01B42ED6011D921C920E948F
:1014E0000B097C0199230CF410C2FC01EE0FFF1FC5
:1014F000EB5EF24F008111810115110509F407C25D
:10150000F60111830083D8018C91882369F011962C
:101510008C910E942E1E80FD07C0BB2009F4F9C1EA
:1015200082FFF9C18AE09AC2F8011082E1828E2D11
:101530000E94541E80FDF1C1BB2009F40EC282FD41
:10154000EEC10BC28081882329F0448055806680DB
:10155000778004C04E2C5F2C672E762ED9014D92D9
:101560005D926D927D929D017096E417F50751F79B
:101570004E01B1E18B0E911C6894772471F8F5014E
:10158000C190D190E190F1905F01C114D104E104C8
:10159000F10441F0B701A601C8010E94EF098111D1
:1015A00002C00DC0872DA814B90449F703C0C12C8F
:1015B000D12C7601833009F4B4C18111B4C1D801B2
:1015C000DD968D919C91DE978115924009F0ADC119
:1015D000F801E85BFF4F40805180612C712C411471
:1015E00051046104710429F43E9640805180628068
:1015F0007380F801428E538E648E758EEE5BFF4FC2
:10160000A081F801A3838FEF8A0F823008F08FC189
:10161000F7ADF98B2F2FF8012283222309F489C11A
:10162000822F90E09C012150310982239323892B42
:1016300009F081C1ED5BFF4F20803180F8013186D8
:101640002086C1018F709927892B09F076C1EB5B49
:10165000FF4F80809180A12CB12C81149104A104B2
:10166000B10429F43D9680809180A280B380F80176
:10167000E05CFF4F0190F081E02D309709F45FC1ED
:10168000B0E0A30192010E9420266A8F7B8F8C8F8D
:101690009D8F9F0140E050E02E8B3F8B488F598FEC
:1016A000C101929582958F7089279F708927280F95
:1016B000391F411D511DDA01C9012A8D3B8D4C8D09
:1016C0005D8D280F391F4A1F5B1F2A8B3B8B4C8B6C
:1016D0005D8B82169306A406B50608F432C1C501D7
:1016E000B401621B730B840B950BE9892E2F30E03C
:1016F00040E050E00E94F825DA01C90121153105CA
:101700004105510509F41FC1263FFFE03F07410590
:10171000510518F0E2E0E98B02C0F1E0F98B863F59
:101720009F4FA105B10508F030C149015A0182E07F
:10173000880E911CA11CB11CD80156968D929D92C9
:10174000AD92BC925997F801C68ED78EE0A2F1A255
:101750008E899F89A88DB98D8C0D9D1DAE1DBF1DD5
:1017600082A393A3A4A3B5A34A895B896C897D89CD
:101770004C0D5D1D6E1D7F1D42A753A764A775A765
:10178000F989F33069F5232809F0DFC0F801E25A3E
:10179000FF4F80819181A281B381F80186A397A335
:1017A000A0A7B1A7880C991CAA1CBB1C880C991C6B
:1017B000AA1CBB1CFFEF8F0EF1E09F1EA11CB11CE9
:1017C000072E79E0B694A794979487947A95D1F7E9
:1017D000702D481459046A047B0408F4B8C001C190
:1017E000232809F4B6C02A8D3B8D4C8D5D8D820F68
:1017F000931FA41FB51FF80186A397A3A0A7B1A7A5
:10180000F989F23029F4880C991CAA1CBB1C10C160
:10181000A3E0B0E0A50194010E942026DC01CB01E9
:10182000B695A7959795879521E082229924AA24B9
:10183000BB24880E991EAA1EBB1EFAC0B701A601C2
:101840004F5F5F4F6F4F7F4FC8010E94B1098111F9
:1018500039C0D80115961C92F801E05DFD4F8081DA
:10186000918185359A4A89F5F80182A993A9A4A99D
:10187000B5A982359245A146B14451F5F801EA5E19
:10188000FD4F80819181A281B38182379247A1442B
:10189000B14609F5349680819181A281B381F80126
:1018A00086879787A08BB18BE25EFD4F8081918107
:1018B000A281B381F80182879387A487B587F3E07B
:1018C000F98B0BC0E3E0E98B08C0F3E0F98B05C0AE
:1018D000E3E0E98B02C0F3E0F98BE989D801EC93EE
:1018E0008091130D9091140D01969093140D809397
:1018F000130D17969C938E93169752961D921D92D8
:101900001D921C92559780E0A9C08BE0A7C08CE087
:10191000A5C080E0A3C080E0A1C083E09FC08AE0B2
:101920009DC081E09BC08DE099C08DE097C08DE0A7
:1019300095C08DE093C08DE091C08DE08FC08DE0AB
:101940008DC08DE08BC08DE089C08DE087C08DE0BB
:1019500085C08DE083C08DE081C040E050E0BA01D9
:10196000C8010E94EF09813009F021CEF801EC5046
:10197000FE4F9E012F5F3F4F5901A8014C5C5D4F08
:10198000E12CF12C70E060E0DDCD49015A0162E00C
:10199000860E911CA11CB11CD80156968D929D9269
:1019A000AD92BC925997F801C68ED78EE0A2F1A2F3
:1019B0008E899F89A88DB98D8C0D9D1DAE1DBF1D73
:1019C00082A393A3A4A3B5A38A899B89AC89BD896B
:1019D0008C0D9D1DAE1DBF1D82A793A7A4A7B5A703
:1019E000D2CE8FEF9FEFDC01F80186879787A08B1F
:1019F000B18B82879387A487B58780E88583EE596A
:101A0000FF4F80819181019709F418CFF3E0F98BA2
:101A100064CF8FEF9FEFDC01F80186879787A08B5B
:101A2000B18B82879387A487B58780E8858355CF5C
:101A3000FFEF8F0EF1E09F1EA11CB11C072E79E075
:101A4000B694A794979487947A95D1F7702D4814FB
:101A500059046A047B0408F47ECFDBCF6D960FB681
:101A6000F894DEBF0FBECDBFDF91CF911F910F91D4
:101A7000FF90EF90DF90CF90BF90AF909F908F90AE
:101A80007F906F905F904F903F902F900895EF92CE
:101A9000FF920F931F93CF93DF93EC010E944609AF
:101AA000982F81115CC08881833009F04EC08D81F0
:101AB000813009F04AC040E052E060E070E07E0111
:101AC00082E3E80EF11CC7010E94E70885E59AEA67
:101AD000FE01E05DFD4F9183808382E592E5A1E602
:101AE000B1E48AAB9BABACABBDAB82E792E7A1E4C0
:101AF000B1E67A9780839183A283B3838E859F8595
:101B0000A889B989349680839183A283B3838A8517
:101B10009B85AC85BD85349680839183A283B383F6
:101B20008E8D9F8DA8A1B9A19C01AD012F5F3F4F64
:101B30004F4F5F4F2EA73FA748AB59AB01E010E0D6
:101B4000B70189810E947A1F1D8240E050E060E069
:101B500089810E94E51F91E0811101C090E0892FE9
:101B6000DF91CF911F910F91FF90EF900895CF9249
:101B7000DF92EF92FF92FC019A01AB0122503109F2
:101B800041095109C688D788E08CF18C82E0C81AD7
:101B9000D108E108F1082C153D054E055F0568F4F4
:101BA000A281B0E00E942026C2A4D3A4E4A4F5A49C
:101BB0006C0D7D1D8E1D9F1D03C060E070E0CB018C
:101BC000FF90EF90DF90CF900895AF92BF92CF92A9
:101BD000DF92EF92FF920F931F93CF93DF93EC016D
:101BE0006A017B01423051056105710508F4ABC003
:101BF0008E899F89A88DB98D481759076A077B0779
:101C000008F0A6C08881823009F44DC0833009F401
:101C10006CC0813009F0A1C08A0116950795040FA8
:101C2000151FC801892F992786954AA15BA16CA130
:101C30007DA1480F591F611D711DCE010E94B10980
:101C4000811190C058018FEFA81AB80A1170FE01D7
:101C5000E00FF11F12A9C501892F992786954AA186
:101C60005BA16CA17DA1480F591F611D711DCE01A3
:101C70000E94B10981117AC081E0B822CA0DDB1D32
:101C80008AA9612F70E0782BC0FE09C07295629519
:101C90006F7067277F70672780E090E072C07F7069
:101CA00080E090E06EC0452F562F672F77278AA1DE
:101CB0009BA1ACA1BDA1480F591F6A1F7B1FCE017C
:101CC0000E94B109811156C0CC0CDD1CEE1CFF1C1A
:101CD000E894C0F881E0D822EE24FF24CC0DDD1D6D
:101CE0006AA97BA980E090E04CC08AA19BA1ACA12D
:101CF000BDA1689416F87695679557954795169403
:101D0000D1F7480F591F6A1F7B1FCE010E94B109EE
:101D1000811134C0CC0CDD1CEE1CFF1CCC0CDD1C76
:101D2000EE1CFF1C8CEFC82281E0D822EE24FF2499
:101D3000FE01EC0DFD1D82A993A9A4A9B5A9BC01C2
:101D4000CD019F701EC061E070E080E090E019C09E
:101D500061E070E080E090E014C061E070E080E05D
:101D600090E00FC06FEF7FEFCB010BC06FEF7FEF05
:101D7000CB0107C06FEF7FEFCB0103C06FEF7FEFA9
:101D8000CB01DF91CF911F910F91FF90EF90DF90EA
:101D9000CF90BF90AF900895AF92BF92CF92DF9255
:101DA000EF92FF920F931F93CF93DF93EC018B0180
:101DB0007D836C83CE80DF80E884F98481E0C8165F
:101DC000D104E104F10409F48CC0E881F981868929
:101DD0009789A08DB18DC816D906EA06FB0608F0D2
:101DE00082C0C114D104E104F104C1F480818330C4
:101DF00041F486A197A1A0A5B1A50097A105B105C1
:101E000059F4808591850817190708F06EC066A1FE
:101E100077A180A591A537C06C017D01A28080E1EA
:101E2000A89E500111240A151B0538F1B701A6011F
:101E3000888199810E94E50D6B017C018FEFC816A6
:101E4000D806E806F80609F452C082E0C816D104A4
:101E5000E104F10408F44DC0E881F981868997898D
:101E6000A08DB18DC816D906EA06FB0608F043C05E
:101E70000A191B090A151B05C8F6B701A6018881B6
:101E800099810E94B70DCA86DB86EC86FD866115B6
:101E900071058105910589F19801329522952F7080
:101EA00023273F702327DC01CB01820F931FA11D45
:101EB000B11D8E879F87A88BB98B0F701127000FDC
:101EC000111F02951295107F1027007F10270E5CBE
:101ED0001F4F88819981800F911F9B8B8A8B80E097
:101EE0000DC082E00BC082E009C082E007C081E043
:101EF00005C082E003C082E001C082E0DF91CF91A3
:101F00001F910F91FF90EF90DF90CF90BF90AF9017
:101F100008954F925F926F927F928F929F92AF92AD
:101F2000BF92CF92DF92EF92FF920F931F93CF93C6
:101F3000DF93EC016A017B01280139014230510530
:101F40006105710508F4D7C08E899F89A88DB98D68
:101F5000481759076A077B0708F0CFC0888182308D
:101F600009F465C0833009F489C0813009F0C7C025
:101F70005A01B694A794A40EB51EC501892F9927BE
:101F800086954AA15BA16CA17DA1480F591F611DD7
:101F9000711DCE010E94B109182F8111CEC04501DB
:101FA0008FEF881A980A31E0B322C0FE21C0FE01EB
:101FB000EA0DFB1D82A9282F2F7030E1439EC0013E
:101FC0001124822B82AB81E08C834AA15BA16CA19E
:101FD0007DA1C401892F99278695480F591F611D3E
:101FE000711DCE010E94B109882309F48EC089C0F9
:101FF000FE01EA0DFB1D42AA81E08C834AA15BA190
:102000006CA17DA1C401892F99278695480F591F7E
:10201000611D711DCE010E94B109882309F480C0A1
:1020200072C0EC0FFD1F42AA81E08C8386C0452F51
:10203000562F672F77278AA19BA1ACA1BDA1480F7E
:10204000591F6A1F7B1FCE010E94B109182F8111F1
:1020500074C0CC0CDD1CEE1CFF1CE894C0F881E0C1
:10206000D822EE24FF2432E3C30ED11CFE01EC0D76
:10207000FD1D5182408281E08C835FC08AA19BA1BB
:10208000ACA1BDA1689416F87695679557954795CC
:102090001694D1F7480F591F6A1F7B1FCE010E946B
:1020A000B109182F811149C0CC0CDD1CEE1CFF1C9E
:1020B000CC0CDD1CEE1CFF1C8CEFC82281E0D8226A
:1020C000EE24FF2432E3C30ED11CFE01EC0DFD1DF6
:1020D00080819181A281B38188279927AA27B07F27
:1020E000482A592A6A2A7B2A408251826282738254
:1020F00081E08C8322C012E020C012E01EC012E0FA
:102100001CC0182F1AC0182F18C0F401F170689461
:1021100013F876946794579447941694D1F781CF27
:10212000F401F170DE01AE0FBF1FD2969C91907F3B
:10213000852D8F70492E482A74CF812FDF91CF9142
:102140001F910F91FF90EF90DF90CF90BF90AF90D5
:102150009F908F907F906F905F904F9008952F92F7
:102160003F924F925F926F927F928F929F92AF9227
:10217000BF92CF92DF92EF92FF920F931F93CF9374
:10218000DF93EC012A013B01411551056105710501
:10219000B9F48A849B84AC84BD8481149104A10425
:1021A000B10461F18E899F89A88DB98D8816990631
:1021B000AA06BB0638F1812C912C5401839422C0CD
:1021C0000E94E50D6B017C0162307105810591056E
:1021D00008F499C08FEFC816D806E806F80609F487
:1021E00097C08E899F89A88DB98DC816D906EA0631
:1021F000FB0608F492C05301420104C0812C912CCB
:1022000054018394750164016894222421F8312CCF
:1022100000E010E02FEFC21AD20AE20AF20A8E8919
:102220009F89A88DB98DC816D906EA06FB0658F015
:1022300082E088169104A104B10408F473C0C22C92
:10224000D32CE02EF12EB701A601CE010E94E50DA0
:10225000611571058105910599F06F3F2FEF7207A8
:102260008207920709F463C0613071058105910509
:1022700009F462C0C814D904EA04FB0459F661C029
:102280008C2C9D2CAE2CBF2C0FEF1FEF2FEF3FE0BF
:10229000B701A601CE010E94890F81112DC0411402
:1022A00051046104710459F00C2D1D2D2E2D3F2D6C
:1022B000B301A201CE010E94890F81111DC08A863F
:1022C0009B86AC86BD868E859F85A889B9898F3F00
:1022D0002FEF9207A207B207C9F10197A109B1092F
:1022E0008E879F87A88BB98B8D8181608D836C2DA4
:1022F0007D2D8E2D9F2D33C0813069F161E070E01E
:1023000080E090E02CC061E070E080E090E027C0C9
:102310006FEF7FEF8FEF9FEF22C06C2D7D2D8E2D05
:102320009F2D1DC060E070E080E090E018C06FEF6E
:102330007FEF8FEF9FEF13C061E070E080E090E0EF
:102340000EC060E070E080E090E009C06C2D7D2D53
:102350008E2D9F2D04C06FEF7FEF8FEF9FEFDF91EA
:10236000CF911F910F91FF90EF90DF90CF90BF9092
:10237000AF909F908F907F906F905F904F903F9025
:102380002F9008957F928F929F92AF92BF92CF929B
:10239000DF92EF92FF920F931F93CF93DF93DC01B5
:1023A0001496CD91DC911597219609F406C11E96DD
:1023B0008D909D90AD90BC90519781149104A10493
:1023C000B10409F4FCC07B018C016E01BFE0CB229B
:1023D000DD24C114D10409F0D4C0EFEF8E1A9E0A97
:1023E000AE0ABE0ADC011E968D929D92AD92BC9201
:1023F00051971A964D915D916D917C911D97411564
:1024000051056105710549F4ED91FC918085918537
:10241000C817D90708F0D5C0B4C0DC01ED91FC9114
:10242000228130E021503109CE01929582958F7042
:1024300089279F70892728233923232B09F0A1C0DE
:10244000CF010E94E50D4B015C01623071058105F1
:10245000910508F4B8C06F3F7F4F8F4F9F4F09F42D
:10246000B4C0D801ED91FC9186899789A08DB18D7A
:1024700088169906AA06BB0608F471C0EF2809F46D
:10248000A6C0D8011A964D915D916D917C911D97D2
:10249000CF010E94AF104B015C01611571058105F0
:1024A000910509F496C0613071058105910509F423
:1024B00092C06F3F7F4F8F4F9F4F09F48EC0D8015E
:1024C0008D919C910E944609811189C0F8018081FB
:1024D000918140E052E060E070E0C2960E94E7081F
:1024E000D801ED90FC90B501A401C7010E94B70D81
:1024F000F70166A777A780AB91ABE12CF12C77248D
:10250000739419C07482D8018D919C910E944609E0
:10251000811167C0D801ED91FC9186A597A5A0A96E
:10252000B1A90196A11DB11D86A797A7A0ABB1AB1C
:10253000BFEFEB1AFB0AD801ED91FC91828190E08C
:10254000E816F906F8F286A597A5A0A9B1A98E19F3
:102550009F09A109B10986A797A7A0ABB1ABF80164
:1025600082869386A486B586B501A4018081918177
:102570000E94B70DD8011E966D937D938D939C9309
:102580005197F801D583C483CC0CDD1CCC0CDD1C29
:10259000CC0CDD1CCC0CDD1CCC0CDD1CF2E3CF0E16
:1025A000D11CD8018D919C911197C80ED91E5396BC
:1025B000DC92CE92529780E015C084E013C084E094
:1025C00011C084E00FC082E00DC081E00BC084E048
:1025D00009C087E007C082E005C081E003C081E058
:1025E00001C081E0DF91CF911F910F91FF90EF909B
:1025F000DF90CF90BF90AF909F908F907F90089585
:102600002F923F924F925F926F927F928F929F9202
:10261000AF92BF92CF92DF92EF92FF920F931F93F0
:10262000CF93DF93CDB7DEB727970FB6F894DEBF11
:102630000FBECDBF7C018B01DB018C918F3211F07D
:102640008C3541F40F5F1F4FF701168217821086F9
:1026500011860CC0D701ED91FC9182899389A489E0
:10266000B589F70186839783A087B187D8018C91BC
:10267000803248F460E070E0C7010E94CC0EF701A0
:10268000138A128A6AC10F2EFBE09F2EF02D812C37
:102690000F2EFEE27F2EF02DB12CA12C6894552434
:1026A00053F8312C212C452C3B829C828D82FF8259
:1026B000EE827A82F8012E813F817F0181918F32F3
:1026C000E1F38C35D1F33F832E83D9015496CD901D
:1026D000DC905597492D582D60E270E0C6010E94AC
:1026E000E708F70180818E3249F0D7016B2D7A2DF2
:1026F0008B2D9A2D652C732C298224C0EA81D6015A
:10270000EC93D70111969C9111979E3259F42E2F7C
:10271000F601218312969C919E3209F474C003E065
:1027200010E002C002E010E09F3209F4D0C09C35F6
:1027300009F4CDC0913208F0E8C0CDC0D6011B9697
:102740008C93E5C001961D91113208F4D9C01F3257
:1027500009F4D1C01C3509F4CEC01E3209F4BFC043
:102760006615770508F0D1C009C0E981EE0FEE0FBC
:10277000E983642D7B816C807D80E4CF11230CF490
:10278000C4C0412F50E042325105E9F1E7E1F2E0E7
:102790002191222309F4A9C030E042175307C1F761
:1027A00032C039813260398308C02FE9210F2A31C4
:1027B00020F4E981E160E9831052F601E60FF71F8A
:1027C00010836F5F7F4FBECF672B09F49EC0D60189
:1027D0009C91953E11F4E5E0EC93F8E06F167104DE
:1027E00021F42981220F220F29839981937091303E
:1027F00009F4806199819C70943009F48860D60155
:102800001B968C9384C086E0A8C0EE80FF80F70101
:102810004685578560897189808191810E94B109BF
:1028200081117FC0D70152966D917C915397FB0126
:102830009081992309F482C0938593FD13C0549627
:102840004D915C915597DA019B01255F3F4F6701E0
:1028500004C0E217F30709F47AC0F1909D91F916CC
:10286000C1F376016B2D7A2DC7010E94C211882316
:1028700071F2FF82EE8257C095FF10C0AE81BF811A
:1028800016961D921D921D921C92199753961C929A
:102890001E92529792FF0ECF80E05FC092FD13C050
:1028A00085E05BC0FB01838584FF0FC0AE81BF81E3
:1028B0008D919C910E94F208EE81FF81668377835F
:1028C00080879187F7CE84E048C085E046C00E0D32
:1028D0001F1D80E233CF0E0D1F1D84E22FCFF8E0C5
:1028E0006F16710409F441CF8ECF2FEB210F2A31DF
:1028F00008F457CF5ACF8701080F191F822D64CFD4
:102900008701080F191F84E05FCF86E026C06B2D7A
:102910007A2D8E819F810E94CC0E882309F475CF79
:1029200002C0FF82EE82AE81BF815496ED91FC9190
:1029300055979385843009F49FCF0FC0FF82EE82B4
:10294000D7015496ED91FC915597938595CFDF82F1
:10295000CE82FA01938592FFA5CF27960FB6F89401
:10296000DEBF0FBECDBFDF91CF911F910F91FF90C2
:10297000EF90DF90CF90BF90AF909F908F907F901F
:102980006F905F904F903F902F900895CF92DF927D
:10299000EF92FF920F931F93CF93DF93EC017B0194
:1029A00060E070E00E94CC0E811124C000E010E0D5
:1029B000C12CD12C4E855F85688979898881998160
:1029C0000E94B109811116C0EA89FB899081953E68
:1029D00011F0911106C00F5F1F4F0E151F0519F45E
:1029E0000CC00C2D1D2D61E070E0CE010E94C211C3
:1029F000882301F3843009F487E0DF91CF911F91A0
:102A00000F91FF90EF90DF90CF9008950F931F9359
:102A1000CF938C0161E070E00E94C614C82F811131
:102A200029C0D8011E964D915D916D917C91519771
:102A30008D919C910E94B109C82F81111BC040E269
:102A400050E060E070E0F801828993890E94E70815
:102A5000D80154966D917C9155974BE050E0529679
:102A60008D919C9153970E94BB08D801ED91FC91E8
:102A700081E084838C2FCF911F910F9108958F92C5
:102A80009F92AF92BF92CF92DF92EF92FF920F93FD
:102A90001F93CF93DF93EC016A017B014230510514
:102AA0006105710508F44EC08E899F89A88DB98D86
:102AB000481759076A077B0708F046C037C0B701B7
:102AC000A601CE010E94E50D4B015C01672B682B2E
:102AD000692BE1F181E088169104A104B104C1F1F0
:102AE0002FEF82169206A206B206A1F100E010E0D6
:102AF0009801B701A601CE010E94890F81112BC058
:102B00008E859F85A889B9898F3F2FEF9207A207ED
:102B1000B20751F00196A11DB11D8E879F87A88B2A
:102B2000B98B8D8181608D83750164018E899F8948
:102B3000A88DB98DC816D906EA06FB0608F4BFCFE2
:102B400080E009C082E007C082E005C080E003C0E9
:102B500082E001C081E0DF91CF911F910F91FF9042
:102B6000EF90DF90CF90BF90AF909F908F9008959F
:102B70001F93CF93DF9300D000D000D0CDB7DEB746
:102B80009C838B837E836D83142F7A836983CE012C
:102B900001960E940B09992334F1FC01EE0FFF1FEF
:102BA000EB5EF24F0190F081E02D309709F010823A
:102BB000EB81FC813097E9F010822B813C81880FFA
:102BC000991FFC01EB5EF24F31832083232B69F0C8
:102BD000113069F440E0BE016B5F7F4FCE01039678
:102BE0000E944F0A0EC08BE00CC080E00AC080E05B
:102BF00008C0880F991FFC01EB5EF24F1182108212
:102C000080E026960FB6F894DEBF0FBECDBFDF91F1
:102C1000CF911F9108953F924F925F926F927F9252
:102C20008F929F92AF92BF92CF92DF92EF92FF92DC
:102C30000F931F93CF93DF93CDB7DEB7A4970FB653
:102C4000F894DEBF0FBECDBF7CA36BA3009709F441
:102C5000C1C0D42E8C01FC01118210824E71BE01C4
:102C60006D5D7F4FCE0101960E944F0A8111DCC03D
:102C7000FD2DFF713F2ECE0147969E8B8D8B6BA154
:102C80007CA146970E940013EB88FC888111A4C0A8
:102C9000E114F10409F0AAC0A4C0843009F0B6C060
:102CA000CE0101960E940615232D2860322EEB8856
:102CB000FC88882341F0A2C0F7018385817109F067
:102CC000B0C0D2FCB0C033FE9DC080E090E0A1E275
:102CD000B6E4F70186879787A08BB18B868B978B9D
:102CE000A08FB18F1386148E158E168E178EC98005
:102CF000DA80B701C6010E94F2082B013C01F701FE
:102D0000138E128E158A148A81E0F6018483411491
:102D100051046104710409F475C086A497A4A0A8A5
:102D2000B1A8B301A201C6010E943F15811166C07E
:102D300089819A81F1E04F1A510861087108FC01FC
:102D40004286538664867586B501A4010E94B10946
:102D5000882331F069C0D1FE55C080FD4CC052C0FF
:102D6000F32DF0623F2EE981FA8186A597A5A0A9EF
:102D7000B1A9F801828F938FA48FB58FF78EE68E5D
:102D8000F80134821582C980DA80B701C6010E9439
:102D9000F208F80166877787808B918BF701848D25
:102DA000958DA68DB78DF80182879387A487B58707
:102DB0001682178210861186168A178A108E118E37
:102DC000D182C082F60186819781F8019383828344
:102DD00080E02AC089E028C04D2D4C7109F05DCFFC
:102DE0000DC04D2D4C7189F486E008C08D2D8C717D
:102DF00009F062CF11C087E001C084E0882309F4A4
:102E0000BFCF12C033FCACCFAECF86E0F32DF8605D
:102E10003F2EEB88FC88F2CFF701838584FDEDCF50
:102E20009ACF87E001C088E0A4960FB6F894DEBF81
:102E30000FBECDBFDF91CF911F910F91FF90EF900B
:102E4000DF90CF90BF90AF909F908F907F906F90CA
:102E50005F904F903F9008952F923F924F925F92D4
:102E60006F927F928F929F92AF92BF92CF92DF929A
:102E7000EF92FF920F931F93CF93DF93EC014B01DF
:102E80006A015901F901118210820E942A0A8111F6
:102E90000CC18D81811109C18C8180FF03C18A859C
:102EA0009B85AC85BD854E815F8168857985841B56
:102EB000950BA60BB70BA60160E070E08417950791
:102EC000A607B70708F46C01C114D10409F4ECC0DB
:102ED0004E815F8168857985DB01CA019170AA27DF
:102EE000BB27892B8A2B8B2B09F098C0E881F981AD
:102EF00012811150DB01CA01072E79E0B695A79522
:102F0000979587957A95D1F7702D182329F5452B3C
:102F1000462B472B29F46E857F858889998907C0C0
:102F20004A895B896C897D89CF010E94E50D6230F9
:102F300071058105910518F482E08D83B6C06F3F5D
:102F4000FFEF7F078F079F0719F481E08D83ADC0E6
:102F50006A8B7B8B8C8B9D8B288039804A895B891F
:102F60006C897D89C1010E94B70D611571058105CC
:102F7000910519F482E08D8398C02B013C01410E2C
:102F8000511C611C711C7601EF2CFF24E694E114A6
:102F9000F10409F43FC0F1014281242F30E0C70160
:102FA000810F911D2817390718F47901E11AF108EA
:102FB0008701A3019201B401F10181810E941E1FCA
:102FC000882319F081E08D8370C0E881F9818481C4
:102FD0008823E1F086A597A5A0A9B1A98419950930
:102FE000A609B709A70160E070E084179507A60756
:102FF000B70760F4BF016E5C7F4F982F8827990F49
:1030000040E052E0880D991D0E94BB08FE2CEE2482
:10301000FF0C2DC04E8A5F8A688E798E2E813F818B
:10302000317080E092E0821B930B76018C159D0538
:1030300008F47C014E895F89688D798D888199813A
:103040000E94B109882319F081E08D832EC08E8102
:103050009F81A885B9859170AA27BB27C2966881F0
:103060007981680F791FA701C4010E94BB088E0CEB
:103070009F1C8E819F81A885B9858E0D9F1DA11DE6
:10308000B11D8E839F83A887B987F50180819181C7
:103090008E0D9F1D91838083CE18DF0809F018CF15
:1030A00080E003C087E001C080E0DF91CF911F91F5
:1030B0000F91FF90EF90DF90CF90BF90AF909F90D7
:1030C0008F907F906F905F904F903F902F900895DA
:1030D0002F923F924F925F926F927F928F929F9228
:1030E000AF92BF92CF92DF92EF92FF920F931F9316
:1030F000CF93DF93EC014B016A015901F901118271
:1031000010820E942A0A81116DC18D8181116AC1CC
:103110008C8181FF66C18E819F81A885B985AC01B4
:10312000BD014C0D5D1D611D711D481759076A07D2
:103130007B0708F440C1C114D10409F43CC14E819D
:103140005F8168857985DB01CA019170AA27BB2759
:10315000892B8A2B8B2B09F0E8C0E881F981128139
:103160001150DB01CA01072E79E0B695A795979516
:1031700087957A95D1F7702D182309F042C0452B19
:10318000462B472B81F46E857F8588899989611547
:10319000710581059105A1F440E050E0BA01CF012D
:1031A0000E94AF1007C04A895B896C897D89CF0175
:1031B0000E94AF10611571058105910509F4FBC0EE
:1031C000613071058105910519F482E08D830AC192
:1031D0006F3FFFEF7F078F079F0719F481E08D8313
:1031E00001C16A8B7B8B8C8B9D8B4E845F8468883E
:1031F000798845284628472821F46E877F87888B61
:10320000998BE881F98146A557A560A971A98E8996
:103210009F89A88DB98D481759076A077B0741F424
:10322000CF010E944609882319F081E08D83DAC01E
:10323000288039804A895B896C897D89C1010E9417
:10324000B70D611571058105910519F482E08D8333
:10325000C9C02B013C01410E511C611C711C76013F
:10326000EF2CFF24E694E114F10409F43FC0F101CE
:103270004281242F30E0C701810F911D28173907A3
:1032800018F47901E11AF1088701A3019201B40150
:10329000F10181810E947A1F882319F081E08D83DA
:1032A000A1C0E881F98186A597A5A0A9B1A9841933
:1032B0009509A609B709A70160E070E08417950792
:1032C000A607B70778F4982F8827990FB401680FDD
:1032D000791F40E052E0CF01C2960E94BB08E8810E
:1032E000F9811482FE2CEE24FF0C4CC04E815F81CC
:1032F000688579858A859B85AC85BD854817590782
:103300006A077B0770F0C1010E944609882319F003
:1033100081E08D8367C0E881F98146A657A660AA3F
:1033200071AA4E8A5F8A688E798E2E813F813170B4
:1033300080E092E0821B930B76018C159D0508F4CA
:103340007C014E895F89688D798D888199810E9481
:10335000B109882319F081E08D8344C08E819F815B
:10336000A885B9859170AA27BB27C2962881398183
:10337000A701B401820F931F0E94BB08E881F98165
:1033800021E024838E0C9F1C8E819F81A885B985A6
:103390008E0D9F1DA11DB11D8E839F83A887B987A8
:1033A000F501808191818E0D9F1D91838083CE18C0
:1033B000DF0809F0C4CE8E819F81A885B9854A8532
:1033C0005B856C857D85481759076A077B0720F464
:1033D0008A879B87AC87BD878C8180628C8380E0E5
:1033E00001C087E0DF91CF911F910F91FF90EF9087
:1033F000DF90CF90BF90AF909F908F907F906F9015
:103400005F904F903F902F900895CF93DF93EC0102
:103410000E942A0A811137C09C8195FF34C04A8DD1
:103420005B8D6C8D7D8D888199810E94B1098111A0
:103430002AC0EE8DFF8D8385806283878A859B8578
:10344000AC85BD85848F958FA68FB78F8E859F8520
:10345000A889B989938F828FB58BA48B80E090E087
:10346000A1E2B6E4868B978BA08FB18F138A128A64
:103470008C818F7D8C83E881F98181E084838881D0
:1034800099810E94470DDF91CF910895CF93DF93EB
:10349000EC010E94051A811107C0CE010E942A0A80
:1034A000811102C019821882DF91CF9108952F9265
:1034B0003F924F925F926F927F928F929F92AF92C4
:1034C000BF92CF92DF92EF92FF920F931F93CF9311
:1034D000DF9300D000D0CDB7DEB71C016A017B01BD
:1034E0000E942A0A811183C1D10115968C911597EA
:1034F00081117DC11A968D919D910D90BC91A02D49
:103500008C159D05AE05BF0530F4F101248121FD28
:1035100002C06C017D01D10116964D905D906D90B9
:103520007C901997F1011682178210861186C114BA
:10353000D104E104F10409F457C100811181D801DB
:1035400012968C90912CA12CB12C072E79E0880C2E
:10355000991CAA1CBB1C7A95D1F7702D41145104FB
:103560006104710409F43FC0B1E04B1A51086108CD
:103570007108C701B6016150710981099109A5015E
:1035800094010E94F82529833A834B835C83C3010D
:10359000B201A50194010E94F82589819A81AB812D
:1035A000BC8182179307A407B507E8F088279927FD
:1035B000DC0188199909AA09BB09482259226A2203
:1035C0007B22D10116964D925D926D927C92199755
:1035D000C418D508E608F70852964D915D916D9193
:1035E0007C91559732C0F101468557856089718974
:1035F000411551056105710519F540E050E0BA012A
:10360000C8010E94AF10AB01BC01413051056105FA
:10361000710529F482E0D10115968C93E8C04F3FE3
:10362000BFEF5B076B077B0721F481E0F101858326
:10363000DEC0D1011E964D935D936D937C9351979F
:10364000F101428B538B648B758B411551056105DC
:10365000710509F494C08C149D04AE04BF0408F0F5
:103660005CC0D10114968C91149781FF0CC08D9190
:103670009C910E94AF10AB01BC0141155105610541
:10368000710541F448C0F101808191810E94E50DEE
:10369000AB01BC014F3FFFEF5F076F077F0729F4C6
:1036A00081E0D10115968C93A2C04230510561058D
:1036B000710560F0D101ED91FC9186899789A08D0B
:1036C000B18D481759076A077B0720F082E0F101A6
:1036D00085838DC0D10152964D935D936D937C93FC
:1036E000559716968D919D910D90BC91A02D880DAA
:1036F000991DAA1DBB1DF10186839783A087B18701
:10370000C818D908EA08FB088C149D04AE04BF044D
:1037100008F4A7CF02C075016401F1018681978189
:10372000A085B1858C0D9D1DAE1DBF1D8683978321
:10373000A087B187D701C6019170AA27BB27892B23
:103740008A2B8B2B01F1808191810E94B70D61152D
:1037500071058105910529F482E0D10115968C93BC
:1037600046C00B2EB9E0F694E794D794C794BA9567
:10377000D1F7B02DC60ED71EE81EF91E07C0C12C0A
:10378000D12C760103C0C12CD12C7601F1018681A8
:103790009781A085B185AC01BD015170662777275F
:1037A000452B462B472B69F046895789608D718DD3
:1037B0004C155D056E057F0521F0C68AD78AE08E1F
:1037C000F18EF10142855385648575854817590747
:1037D0006A077B0758F482879387A487B58784811B
:1037E0008062848380E003C080E001C080E00F90AD
:1037F0000F900F900F90DF91CF911F910F91FF903D
:10380000EF90DF90CF90BF90AF909F908F907F9080
:103810006F905F904F903F902F9008958F929F925E
:10382000AF92BF92CF92DF92EF92FF920F931F93CE
:10383000CF93DF9300D000D0CDB7DEB7882E992E7E
:103840005A01E82EF92E00E010E06B0181E0C81A61
:10385000D1081DC09E012D5F3F4F41E050E0BE01E9
:103860006F5F7F4FC5010E942C172B813C81213057
:10387000310581F429812D3051F0EFEFEE1AFE0A67
:10388000F701319720830F5F1F4F2A3019F00C1575
:103890001D0504F3F7011082012B19F0882D992DD5
:1038A00002C080E090E00F900F900F900F90DF919A
:1038B000CF911F910F91FF90EF90DF90CF90BF902D
:1038C000AF909F908F90089526B326B326B326B36A
:1038D00026B30197C9F70895FC01680F791F9191EC
:1038E000992314F4C29A01C0C298C19AC19896FF54
:1038F00002C0C29A01C0C298C19AC19895FF02C085
:10390000C29A01C0C298C19AC19894FF02C0C29ADB
:1039100001C0C298C19AC19893FF02C0C29A01C067
:10392000C298C19AC19892FF02C0C29A01C0C298BF
:10393000C19AC19891FF02C0C29A01C0C298C19AAF
:10394000C19890FF02C0C29A01C0C298C19AC198A2
:10395000E617F70721F60895C29AFC01680F791F50
:1039600096B3C19AC19893FB992790F9990FB3998F
:103970009F5FC19AC198990FB3999F5FC19AC198EF
:10398000990FB3999F5FC19AC198990FB3999F5F9F
:10399000C19AC198990FB3999F5FC19AC198990F25
:1039A000B3999F5FC19AC198990FB3999F5FC19ACC
:1039B000C1989193E617F70799F608950F931F930F
:1039C000CF93DF931F92CDB7DEB708E813E161E034
:1039D00070E0CE0101960E94AC1C89818F3F39F0C6
:1039E00084E690E00E94641C0150110981F781E097
:1039F00090E0012B11F480E090E00F90DF91CF91E7
:103A00001F910F910895CF93DF931F92CDB7DEB72B
:103A1000C09A61E070E0CE0101960E94AC1C0F904C
:103A2000DF91CF9108950F931F93CF93DF931F9250
:103A3000CDB7DEB7C09861E070E0CE0101960E947C
:103A4000AC1C0E94DE1C8C01892B19F40E94031D02
:103A500002C001E010E0C8010F90DF91CF911F91EB
:103A60000F910895CF92DF92EF92FF920F931F93E1
:103A7000CF93DF9300D0CDB7DEB77C016B0108EEAA
:103A800013E061E070E0CE0101960E94AC1C9981C8
:103A90009F3F39F484E690E00E94641C01501109B4
:103AA00081F799819E3F69F4B601C7010E94AC1C61
:103AB00062E070E0CE0101960E94AC1C81E090E0D3
:103AC00002C080E090E00F900F90DF91CF911F91A6
:103AD0000F91FF90EF90DF90CF900895EF92FF92BB
:103AE0001F93CF93DF9300D0CDB7DEB77C01162FA5
:103AF0000E94DE1C009731F1198361E070E0CE0175
:103B000001960E946C1C1D3FD9F060E072E0C70175
:103B10000E946C1C62E070E0CE0101960E94AC1C19
:103B200061E070E0CE0101960E94AC1C89818F712A
:103B300031E020E0853009F030E0832F922F02C081
:103B400081E090E00F900F90DF91CF911F91FF9057
:103B5000EF900895DF92EF92FF920F931F93CF9310
:103B6000DF93CDB7DEB727970FB6F894DEBF0FBE51
:103B7000CDBF182F042FF52EE62ED72E882354F410
:103B800040E050E0BA0187E30E94AA1D823008F0AD
:103B900057C01F771C3029F10E94031D0E94131D7E
:103BA000892BE9F0812F80648A83DB82EC82FD829D
:103BB0000E831123E1F138C061E070E0CE0101967F
:103BC0000E94AC1C1AE061E070E0CE0101960E94F8
:103BD000AC1C89818823A4F51150A9F731C08FEF5F
:103BE0002FC08CE48A83DB82EC82FD820E8381E02D
:103BF0008F8366E070E0CE0102960E946C1C1C3040
:103C000009F7DACF87E88F8366E070E0CE0102968D
:103C10000E946C1CD7CF81E08F8366E070E0CE01FC
:103C200002960E946C1CCECF183061F3F4CF85E968
:103C30008F8366E070E0CE0102960E946C1CC2CFBA
:103C400027960FB6F894DEBF0FBECDBFDF91CF91A0
:103C50001F910F91FF90EF90DF9008951F93CF93E6
:103C6000DF931F92CDB7DEB7811118C010919B0171
:103C700010FD10C040E050E0BA018DE00E94AA1D86
:103C8000811111E061E070E0CE0101960E94AC1C50
:103C90000E94031D10939B01812F01C081E00F90B2
:103CA000DF91CF911F910895EF92FF920F931F9391
:103CB000CF93DF9300D000D0CDB7DEB78111B2C073
:103CC0001F98179A80E197E20E94641C88B3827C57
:103CD000896388BB87B3807C876087BB1AE061E01B
:103CE00070E0CE0101960E94AC1C1150C1F740E07B
:103CF00050E0BA0180E00E94AA1D813009F077C02F
:103D00004AEA51E060E070E088E00E94AA1D81303C
:103D1000D1F564E070E0CE0101960E94AC1C8B816D
:103D2000813009F066C08C818A3A09F064C008EEDF
:103D300013E040E050E060E070E489EA0E94AA1DD0
:103D4000882349F088EE93E00E94641C0150110919
:103D500081F7F12C5CC0012B09F44FC040E050E02A
:103D6000BA018AE30E94AA1D811149C064E070E093
:103D7000CE0101960E94AC1C898186FD42C06894E8
:103D8000FF24F2F844C040E050E0BA0189EA0E9402
:103D9000AA1D823028F0EE24E394FF24F39407C098
:103DA0000F2EF9EAEF2EF02D6894FF24F1F808EEBB
:103DB00013E040E050E0BA018E2D0E94AA1D882336
:103DC00049F088EE93E00E94641C0150110989F7C4
:103DD000F12C1DC0012BD1F040E052E060E070E01A
:103DE00080E10E94AA1D882391F0F12C10C0F12CD3
:103DF0000EC0F12C0CC0F12C0AC0F12C08C0F12C23
:103E000006C00F2EFCE0FF2EF02D01C0F12CF09229
:103E1000190D11E0F11010E010939B010E94031D99
:103E2000812F01C083E00F900F900F900F90DF91D2
:103E3000CF911F910F91FF90EF900895BF92CF9275
:103E4000DF92EF92FF920F931F93CF93DF93EB01DB
:103E500069017A010E942E1E80FD3FC001151105E7
:103E600009F43DC08091190D83FD09C00B2EB9E006
:103E7000CC0CDD1CEE1CFF1CBA95D1F7B02D023026
:103E8000110528F40F2EF1E1BF2EF02D04C00F2EE6
:103E9000F2E1BF2EF02DB701A6018B2D0E94AA1DC5
:103EA000811114C060E072E0CE010E94321D892BA6
:103EB00021F0DE5F01501109A9F782E1B81206C0B6
:103EC00040E050E0BA018CE00E94AA1D0E94031D50
:103ED00081E0012B29F480E003C083E001C084E08D
:103EE000DF91CF911F910F91FF90EF90DF90CF90D6
:103EF000BF900895CF92DF92EF92FF920F931F939E
:103F0000CF93DF93EB0169017A010E942E1E80FDA1
:103F100050C00115110509F44EC08091190D83FDA3
:103F200009C00B2EB9E0CC0CDD1CEE1CFF1CBA95B1
:103F3000D1F7B02D0130110599F4B701A60188E140
:103F40000E94AA1D81112EC06EEFCE010E946E1D2F
:103F500031E020E0892B09F030E0032F122F22C03E
:103F6000867031F0A80160E070E087E90E94AA1D28
:103F7000B701A60189E10E94AA1D811113C06CEF4F
:103F8000CE010E946E1D892B21F0DE5F01501109C8
:103F9000B1F76DEF80E090E00E946E1D892B11F467
:103FA00001E010E00E94031D81E0012B29F480E074
:103FB00003C083E001C084E0DF91CF911F910F9196
:103FC000FF90EF90DF90CF900895EF92FF921F93B4
:103FD000CF93DF93CDB7DEB760970FB6F894DEBF0F
:103FE0000FBECDBF162F7A010E942E1E80FD97C0F6
:103FF000113069F020F0133009F47DC087C00E94B1
:10400000131D11E0892B09F486C010E084C040E044
:1040100050E0BA0189E00E94AA1D811179C060E1D7
:1040200070E0CE0101960E94321D892B09F472C006
:1040300089818295869586958370813031F5888552
:104040008F7390E0A0E0B0E0DC019927882701960B
:10405000A11DB11D298530E0322F22274A85240F6A
:10406000311D820F931FA11DB11D072E7AE0880F0D
:10407000991FAA1FBB1F7A95D1F7702DF701808376
:104080009183A283B38310E046C08985829586958B
:1040900086958370288590E0F4E02F9F800D911D18
:1040A00011249C012F5F3F4F9F819370892F90E0D7
:1040B000982F8827990F990F820F931FA0E0B0E0E7
:1040C0002E81322F3F702B85221F2227221F230F84
:1040D0003A853370330F230F275004C0880F991F80
:1040E000AA1FBB1F2A95D2F7F70180839183A28371
:1040F000B38310E010C080E890E0A0E0B0E0F701EA
:1041000080839183A283B38310E005C014E003C0D1
:1041100011E001C011E00E94031D812F01C083E066
:1041200060960FB6F894DEBF0FBECDBFDF91CF9182
:104130001F91FF90EF90089508950895CF93DF9316
:10414000CDB7DEB740E06FE975E044960E94B81540
:1041500040E06DA17EA1CE0105960E940B1688233A
:1041600089F0CE0105960E94461A44E06DA17EA119
:10417000CE0105960E940B16811104C0CE01059652
:104180000E94461A80E090E0DF91CF910895EF926F
:10419000FF920F931F93CF93DF937C01EB018A0172
:1041A00042E1B901CE010E940B16811118C04A8567
:1041B0005B856C857D85CE010E94571A81110FC0E9
:1041C000F80101900020E9F73197AF01401B510B36
:1041D00097012A5B3D4FB801CE010E946818CE01BD
:1041E0000E94461A80E090E0DF91CF911F910F91DD
:1041F000FF90EF90089508951F920F920FB60F92BF
:1042000011248F939F93AF93BF9380911E0D909134
:104210001F0DA091200DB091210D0196A11DB11D82
:1042200080931E0D90931F0DA093200DB093210D30
:10423000BF91AF919F918F910F900FBE0F901F90E4
:1042400018951F920F920FB60F9211242F933F9340
:104250008F939F93AF93BF9380912A0D90912B0DD5
:10426000892B49F486B597B59093290D8093280D35
:104270008EB580648EBD80912A0D90912B0D019793
:1042800061F486B597B59093270D8093260D8EB572
:104290008F7B8EBD87B78F7D87BF80912A0D9091D0
:1042A0002B0D019690932B0D80932A0D80912A0D52
:1042B00090912B0D02976CF12091260D3091270DD6
:1042C0008091280D9091290D281B390B8091220D8A
:1042D0009091230DA091240DB091250D820F931F75
:1042E000A11DB11D8093220D9093230DA093240D49
:1042F000B093250D10922B0D10922A0D80E286BFEF
:1043000087B7806287BF8EB580688EBD8EB58F7B84
:104310008EBDBF91AF919F918F913F912F910F9043
:104320000FBE0F901F90189508956091220D709107
:10433000230D8091240D9091250D1092220D109245
:10434000230D1092240D1092250D08958EB58A68C4
:104350008EBD8EB58F7B8EBD83E08BBD80ED8ABD1B
:1043600087B7806387BF86B7806286BF80E090E0B2
:104370000895F89480911E0D90911F0DA091200D2D
:10438000B091210D80931A0D90931B0DA0931C0DDD
:10439000B0931D0D789460911A0D70911B0D809152
:1043A0001C0D90911D0D08950895709398006093D1
:1043B000990088E180939A008EE080939D0080E0D0
:1043C00090E008957093900069B988E18AB98EE011
:1043D0008093950080E090E00895EBE9F0E0808123
:1043E00085FFFDCF60939C0080E090E008955D9B89
:1043F000FECF6CB980E090E008950F931F93CF93A8
:10440000DF93EB016881662341F08C012196C8019E
:104410000E94ED2169916111FACF80E090E0DF9177
:10442000CF911F910F9108950F931F93CF93DF9317
:10443000EB016881662341F08C012196C8010E943E
:10444000F72169916111FACF80E090E0DF91CF917F
:104450001F910F9108951F920F920FB60F92112482
:104460002F933F938F939F93EF93FF938CB1809300
:104470009C002091340D3091350D2130310591F49F
:104480002091360D3091370D2C3291E0390754F4DC
:10449000F901E85CF24F80832F5F3F4F3093370D77
:1044A0002093360DFF91EF919F918F913F912F9126
:1044B0000F900FBE0F901F9018950895AF92BF9266
:1044C000CF92DF92EF92FF920F931F93CF93DF93E0
:1044D000CDB7DEB7CC52D1400FB6F894DEBF0FBED9
:1044E000CDBF81E090E09093350D8093340D5093D3
:1044F000330D4093320D3093310D2093300D1092D7
:104500002F0D10922E0D10922D0D10922C0D549AED
:10451000579A87B78F7E87BF1C141D0474F55A0104
:10452000E12CF12CF89468E37DE0CE0101960E9425
:1045300070277894B501CE0101960E947727892BC8
:10454000B1F4B801CE0101960E947727892B91F42E
:104550008FEFE81AF80AAFE1BEE41197F1F700C057
:104560000000EC14FD04F1F640E050E008C041E02A
:1045700050E005C042E050E002C040E050E097B794
:10458000906197BF549857981092350D1092340D42
:104590002CE231E0E8E3FDE0DF01C9011D92019763
:1045A000E9F71092370D1092360DCA01C45DDE4F47
:1045B0000FB6F894DEBF0FBECDBFDF91CF911F9134
:1045C0000F91FF90EF90DF90CF90BF90AF90089544
:1045D0008F929F92AF92BF92CF92DF92EF92FF9213
:1045E0000F931F93CF93DF934C01EB016894AA24A0
:1045F000A2F8B12C62E872E0CE010E94142262E8B7
:1046000072E0CE010E94FD21C090A001D090A101D6
:104610000F2EF3E0EF2EF12CF02D0FE013E021E050
:1046200030E04EEA52E0BE01C4010E945E228130B9
:10463000910541F460EB72E0CE010E94FD2181E022
:1046400090E019C08230910541F465EC72E0CE0132
:104650000E94FD2181E090E00EC0892B29F46AEDD3
:1046600072E0CE010E94FD2181E0A81AB10809F094
:10467000C1CF80E090E0DF91CF911F910F91FF902B
:10468000EF90DF90CF90BF90AF909F908F90089564
:104690004F925F926F927F928F929F92AF92BF9252
:1046A000CF92DF92EF92FF920F931F93CF93DF93FE
:1046B000CDB7DEB7C456D1090FB6F894DEBF0FBE32
:1046C000CDBF4C015B01742E652E522E432E2FEF71
:1046D00033ED80E3215030408040E1F700C000001E
:1046E00089E0E5E0F3E08E010F5F1F4FD8010190F4
:1046F0000D928A95E1F7B801C5010E94142284E663
:10470000F80111928A95E9F7C0909E01D0909F011F
:104710000F2EFCE2EF2EFF24F394F02D0DE712E0B4
:1047200024E030E04EE053E0B501C4010E945E2277
:104730000197B1F1C0909E01D0909F0122E030E03E
:1047400043E153E0B501C4010E945E22019709F0E4
:1047500081C026C066E173E0C5010E94FD2100E032
:1047600010E0B1C0C0909C01D0909D010F2EFCE2E2
:10477000EF2EFF24F394F02D0DE712E022E030E05D
:1047800043E153E0B501C4010E945E22019741F06C
:1047900065E373E0C5010E94FD2100E010E093C0D5
:1047A00060E573E0C5010E941422C090A001D09082
:1047B000A1010F2EFCE2EF2EFF24F394F02D0DE764
:1047C00012E021E030E04EEA52E0B501C4010E945F
:1047D0005E22019741F06EE573E0C5010E94FD2164
:1047E00000E010E070C068E773E0C5010E94142289
:1047F000C090A001D090A1010F2EFCE2EF2EFF246B
:10480000F394F02D0DE712E023E030E043E853E0AD
:10481000B501C4010E945E228C01019741F067E856
:1048200073E0C5010E94FD2100E010E04CC067E983
:1048300073E0C5010E941422FFEF23ED30E3F15035
:1048400020403040E1F700C00000B501C4010E94E3
:10485000E82239C04F925F926F927F9285EA93E08F
:104860009F938F938E010F5F1F4F1F930F930E9493
:104870009127B801C5010E941422B801C5010E9408
:10488000FD2184E6F80111928A95E9F7C090A20112
:10489000D090A3010F2EFCE2EF2EFF24F394F02D15
:1048A0000DE712E024E030E04EE053E0B501C40132
:1048B0000E945E220FB6F894DEBF0FBECDBF0197F7
:1048C00009F048CF4FCFC801CC59DF4F0FB6F8944D
:1048D000DEBF0FBECDBFDF91CF911F910F91FF9033
:1048E000EF90DF90CF90BF90AF909F908F907F9090
:1048F0006F905F904F900895AF92BF92CF92DF92EA
:10490000EF92FF920F931F93CF93DF93EB015A0126
:1049100069016AEB73E0CE010E941422B501CE0159
:104920000E9414226DE975E0CE010E9414226AEB08
:1049300073E0CE010E94FD21B501CE010E94FD2150
:104940006DE975E0CE010E94FD212FEF80E792E036
:10495000215080409040E1F700C0000066EC73E019
:10496000CE010E94142266EC73E0CE010E94FD216C
:1049700067EE73E0CE010E94142267EE73E0CE0171
:104980000E94FD216FEC75E0CE010E9414226FECB5
:1049900075E0CE010E94FD2164E674E0CE010E9424
:1049A000142264E674E0CE010E94FD21B601CE011E
:1049B0000E9414226BE975E0CE010E941422B60118
:1049C000CE010E94FD216BE975E0CE010E94FD2120
:1049D00061E076E0CE010E941422B801CE010E946F
:1049E000142269E076E0CE010E941422B701CE01C4
:1049F0000E9414226BE975E0CE010E94142261E04E
:104A000076E0CE010E94FD21B801CE010E94FD2179
:104A100069E076E0CE010E94FD21B701CE010E943F
:104A2000FD216DE975E0CE010E94FD2180E090E05E
:104A3000DF91CF911F910F91FF90EF90DF90CF907A
:104A4000BF90AF9008954F925F926F927F928F9236
:104A50009F92AF92BF92CF92DF92EF92FF920F930D
:104A60001F93CF93DF93CDB7DEB72A970FB6F89495
:104A7000DEBF0FBECDBF4C015B012A013801E20E43
:104A8000F31EC7018B569F4F9F938F930DEC11E040
:104A90001F930F93CE0106969F938F930E949127A9
:104AA00023E1E20EF11CFF92EF921F930F93CE01D0
:104AB00001969F938F930E94912767EB75E0C50144
:104AC0000E94142267EB75E0C5010E94FD21C09091
:104AD0009E01D0909F016894EE24E1F8F12C06EC41
:104AE00015E022E030E049EC55E0B501C4010E9438
:104AF0005E220FB6F894DEBF0FBECDBF019739F02E
:104B0000B501C4010E94E822009709F45AC073015C
:104B100082019E012F5F3F4FAE014A5F5F4FB5019B
:104B2000C4010E947C2487B78F7E87BFC090A001FC
:104B3000D090A1010F2EF3E0EF2EF12CF02D02E129
:104B400016E022E030E04CEC55E0B501C4010E94D3
:104B50005E223C01029799F197B7906197BF8FEF62
:104B600099E628E1815090402040E1F700C0000024
:104B70006AE1C5010E94F7216A946728A1F0C090FC
:104B8000A001D090A1010F2EFCE2EF2EFF24F394A0
:104B9000F02D0DE712E022E030E04CEC55E0B501DD
:104BA000C4010E945E228FEF94E32CE0815090407C
:104BB0002040E1F700C0000081E090E002C082E008
:104BC00090E02A960FB6F894DEBF0FBECDBFDF91FE
:104BD000CF911F910F91FF90EF90DF90CF90BF90FA
:104BE000AF909F908F907F906F905F904F900895BF
:104BF000A1E21A2EAA1BBB1BFD010DC0AA1FBB1FE1
:104C0000EE1FFF1FA217B307E407F50720F0A21B52
:104C1000B30BE40BF50B661F771F881F991F1A94BF
:104C200069F760957095809590959B01AC01BD01E9
:104C3000CF010895EE0FFF1F0590F491E02D099428
:104C40000E942B26A59F900DB49F900DA49F800DD0
:104C5000911D11240895A29FB001B39FC001A39F8D
:104C6000700D811D1124911DB29F700D811D1124A5
:104C7000911D08950E944E260C942F270E942827EC
:104C800058F00E94212740F029F45F3F29F00C944E
:104C9000182751110C9463270C941E270E9440275B
:104CA00068F39923B1F3552391F3951B550BBB275B
:104CB000AA2762177307840738F09F5F5F4F220FA0
:104CC000331F441FAA1FA9F335D00E2E3AF0E0E897
:104CD00032D091505040E695001CCAF72BD0FE2FE1
:104CE00029D0660F771F881FBB1F26173707480775
:104CF000AB07B0E809F0BB0B802DBF01FF2793582D
:104D00005F4F3AF09E3F510578F00C9418270C94B1
:104D100063275F3FE4F3983ED4F3869577956795D4
:104D2000B795F7959F5FC9F7880F911D9695879561
:104D300097F90895E1E0660F771F881FBB1F621780
:104D400073078407BA0720F0621B730B840BBA0B3E
:104D5000EE1F88F7E09508950E94482788F09F5736
:104D600098F0B92F9927B751B0F0E1F0660F771F8F
:104D7000881F991F1AF0BA95C9F714C0B13091F085
:104D80000E946227B1E008950C946227672F782F64
:104D90008827B85F39F0B93FCCF38695779567954A
:104DA000B395D9F73EF490958095709561957F4FB6
:104DB0008F4F9F4F0895E89409C097FB3EF490955C
:104DC0008095709561957F4F8F4F9F4F9923A9F0E4
:104DD000F92F96E9BB279395F69587957795679573
:104DE000B795F111F8CFFAF4BB0F11F460FF1BC0B7
:104DF0006F5F7F4F8F4F9F4F16C0882311F096E94A
:104E000011C0772321F09EE8872F762F05C06623F7
:104E100071F096E8862F70E060E02AF09A95660FB0
:104E2000771F881FDAF7880F9695879597F9089569
:104E300097F99F6780E870E060E008959FEF80EC4D
:104E4000089500240A9416161706180609060895F0
:104E500000240A9412161306140605060895092E56
:104E60000394000C11F4882352F0BB0F40F4BF2BC5
:104E700011F460FF04C06F5F7F4F8F4F9F4F089505
:104E800057FD9058440F551F59F05F3F71F04795FB
:104E9000880F97FB991F61F09F3F79F087950895E0
:104EA000121613061406551FF2CF4695F1DF08C0FF
:104EB000161617061806991FF1CF8695710561051C
:104EC00008940895E894BB2766277727CB0197F9C4
:104ED0000895DC0101C06D9341505040E0F7089502
:104EE000FB01DC0101900D920020E1F70895FB0128
:104EF00051915523A9F0BF01DC014D914517411196
:104F0000E1F759F4CD010190002049F04D91401591
:104F10004111C9F3FB014111EFCF81E090E001970E
:104F20000895AEE0B0E0E7E9F7E20C94402A0D897D
:104F30001E8986E08C831A8309838FEF9FE79E8307
:104F40008D83AE01475E5F4F6F89788DCE010196EC
:104F50000E94B4272F813885F801E20FF31F1082D9
:104F60002E96E4E00C945C2AACE0B0E0EAEBF7E2C9
:104F70000C94322A7C016B018A01FC011782168293
:104F8000838181FFBDC1CE0101964C01F701938160
:104F9000F60193FD859193FF81916F01882309F4B8
:104FA000ABC1853239F493FD859193FF81916F01F7
:104FB000853229F4B70190E00E949C29E7CF512C5B
:104FC000312C20E02032A0F48B3269F030F48032B2
:104FD00059F0833269F420612CC08D3239F080336E
:104FE00039F4216026C02260246023C0286021C0DB
:104FF00027FD27C030ED380F3A3078F426FF06C081
:10500000FAE05F9E300D1124532E13C08AE0389EC3
:10501000300D1124332E20620CC08E3221F426FD77
:105020006BC1206406C08C3611F4206802C088363B
:1050300041F4F60193FD859193FF81916F018111F8
:10504000C1CF982F9F7D9554933028F40C5F1F4F4C
:10505000FFE3F9830DC0833631F0833771F0833578
:1050600009F05BC022C0F801808189830E5F1F4F69
:1050700044244394512C540115C03801F2E06F0EC2
:10508000711CF801A080B18026FF03C0652D70E07F
:1050900002C06FEF7FEFC5012C870E9491292C0180
:1050A00083012C852F77222E17C03801F2E06F0E76
:1050B000711CF801A080B18026FF03C0652D70E04F
:1050C00002C06FEF7FEFC5012C870E9486292C015B
:1050D0002C852068222E830123FC1BC0832D90E0A9
:1050E00048165906B0F4B70180E290E00E949C296E
:1050F0003A94F4CFF50127FC859127FE81915F0159
:10510000B70190E00E949C2931103A94F1E04F1AC7
:1051100051084114510471F7E5C0843611F0893605
:1051200039F5F80127FF07C0608171818281938181
:105130000C5F1F4F08C060817181072E000C880B27
:10514000990B0E5F1F4F2F76722E97FF09C0909517
:105150008095709561957F4F8F4F9F4F2068722E7D
:105160002AE030E0A4010E94D429A82EA81844C047
:10517000853729F42F7EB22E2AE030E025C0F22FA9
:10518000F97FBF2E8F36C1F018F4883579F0B4C09E
:10519000803719F0883721F0AFC02F2F2061B22E51
:1051A000B4FE0DC08B2D8460B82E09C024FF0AC048
:1051B0009F2F9660B92E06C028E030E005C020E1A0
:1051C00030E002C020E132E0F801B7FE07C06081A4
:1051D0007181828193810C5F1F4F06C06081718154
:1051E00080E090E00E5F1F4FA4010E94D429A82EFA
:1051F000A818FB2DFF777F2E76FE0BC0372D3E7F44
:10520000A51450F474FE0AC072FC08C0372D3E7E0F
:1052100005C0BA2C372D03C0BA2C01C0B52C34FF01
:105220000DC0FE01EA0DF11D8081803311F4397E3D
:1052300009C032FF06C0B394B39404C0832F8678AC
:1052400009F0B39433FD13C030FF06C05A2CB314D9
:1052500018F4530C5B18B32CB31468F4B70180E254
:1052600090E03C870E949C29B3943C85F5CFB31411
:1052700010F43B1801C0312C34FF12C0B70180E399
:1052800090E03C870E949C293C8532FF17C031FD8D
:1052900003C088E790E002C088E590E0B7010CC049
:1052A000832F867859F031FF02C08BE201C080E283
:1052B00037FD8DE2B70190E00E949C29A51438F4D7
:1052C000B70180E390E00E949C295A94F7CFAA94FA
:1052D000F401EA0DF11D8081B70190E00E949C2944
:1052E000A110F5CF332009F451CEB70180E290E050
:1052F0000E949C293A94F6CFF7018681978102C0DB
:105300008FEF9FEF2C96E2E10C944E2AFC01059062
:10531000615070400110D8F7809590958E0F9F1FB7
:105320000895FC016150704001900110D8F78095FC
:1053300090958E0F9F1F08950F931F93CF93DF9328
:10534000FB01238121FD03C08FEF9FEF28C022FFC7
:1053500016C046815781248135814217530744F492
:10536000A081B1819D012F5F3F4F318320838C93BA
:10537000268137812F5F3F4F3783268310C0EB0193
:10538000092F182F0084F185E02D0995892BE1F66E
:105390008E819F8101969F838E83812F902FDF9135
:1053A000CF911F910F910895FA01AA27283051F14A
:1053B000203181F1E8946F936E7F6E5F7F4F8F4F46
:1053C0009F4FAF4FB1E03ED0B4E03CD0670F781FA5
:1053D000891F9A1FA11D680F791F8A1F911DA11D8A
:1053E0006A0F711D811D911DA11D20D009F46894C3
:1053F0003F912AE0269F11243019305D3193DEF66B
:10540000CF010895462F4770405D4193B3E00FD020
:10541000C9F7F6CF462F4F70405D4A3318F0495D0B
:1054200031FD4052419302D0A9F7EACFB4E0A695EE
:105430009795879577956795BA95C9F70097610510
:10544000710508959B01AC010A2E06945795479566
:1054500037952795BA95C9F7620F731F841F951F5B
:10546000A01D08952F923F924F925F926F927F926C
:105470008F929F92AF92BF92CF92DF92EF92FF9264
:105480000F931F93CF93DF93CDB7DEB7CA1BDB0B10
:105490000FB6F894DEBF0FBECDBF09942A883988B5
:1054A00048885F846E847D848C849B84AA84B984BC
:1054B000C884DF80EE80FD800C811B81AA81B981C8
:1054C000CE0FD11D0FB6F894DEBF0FBECDBFED01DC
:1054D000089510E0C7E4D0E004C0FE010E941A263F
:0C54E0002196C834D107C9F7F894FFCF1B
:1054EC00636F6C312C636F6C322C636F6C332C6379
:1054FC006F6C342C636F6C32342C636F6C32352CC4
:10550C00636F6C362C636F6C382C636F6C32372C7A
:10551C00636F6C32362C636F6C31312C636F6C3172
:10552C00322C636F6C32382C636F6C31342C636F9C
:10553C006C33332C636F6C372C636F6C31382C638A
:10554C006F6C31392C636F6C32392C636F6C333068
:10555C002C636F6C31362C636F6C31372C636F6C32
:10556C00352C636F6C32302C636F6C3231004E45CE
:10557C005741544D454C2E7478740001DC05C8001D
:10558C00F401E80325642C223230253032642D25B9
:10559C003032642D2530326420253032643A253087
:1055AC0032643A2530326422002C25642C256400A8
:1055BC002C256C752C256C75002C4E554C4C2C4E9A
:1055CC00554C4C006661696C656420746F206F707B
:1055DC00656E206E6574776F726B2E7478740070C4
:1055EC00617373776F72642E7478740064736600E1
:1055FC00736574757000222A2B2C3A3B3C3D3E3F60
:10560C005B5D7C7F00222A2B2C2E3A3B3C3D3E3F9F
:10561C005B5D7C7F00EBFE904D53444F53352E3039
:10562C00004E4F204E414D45202020204641543302
:10563C0032202020004E4F204E414D45202020206E
:10564C00464154202020202000434F4E462E747893
:10565C00740041542B43574C41500D0A004E4F4E91
:10566C00450041542B43495053544152543D22540C
:10567C004350222C22746573742E61697273656EAB
:10568C00736F72732E6361222C38300D0A004B003D
:10569C00436F6E6E656374656420746F20486F731E
:1056AC00742E0D0A00416C726561647920636F6E13
:1056BC006E65637465642E0D0A00636F756C6420EF
:1056CC006E6F7420636F6E6E6563742E20617474DC
:1056DC00656D7074696E6720746F207265636F6E90
:1056EC006E6563740041542B5253540D0A002043D1
:1056FC004F4E00495000436F756E64206E6F7420DE
:10570C00636F6E6E65637420746F206E6574776F53
:10571C00726B0D0A00436F756C64206E6F7420679A
:10572C00657420495020616464726573730D0A00BE
:10573C0041542B43574D4F44453D310D0A00436FA7
:10574C00756C64206E6F74206368616E63652043B2
:10575C00574D4F44450D0A0041542B434946535273
:10576C000D0A00313932004E6F20495020616464BB
:10577C00726573730D0A0041542B4349504D5558B3
:10578C003D300D0A0041542B43574A41503D2225D0
:10579C0073222C222573220D0A0041542B434950AD
:1057AC0053454E443D00504F5354202F636C6F753E
:1057BC00642F706F7374332E70687020485454507B
:1057CC002F312E310D0A00486F73743A20746573B3
:1057DC00742E61697273656E736F72732E63610DD3
:1057EC000A00436F6E74656E742D547970653A209F
:1057FC006D756C7469706172742F666F726D2D6447
:10580C006174612C20626F756E646172793D4161C7
:10581C00423033780D0A00436F6E6E656374696FA6
:10582C006E3A206B6565702D616C6976650D0A00AA
:10583C00436F6E6E656374696F6E3A20636C6F7341
:10584C00650D0A00436F6E74656E742D4C656E6742
:10585C0074683A20002D2D4161423033780D0A00D6
:10586C00436F6E74656E742D446973706F736974D5
:10587C00696F6E3A20666F726D2D646174613B20A6
:10588C006E616D653D22686561646572220D0A006A
:10589C00636F6C312C636F6C322C636F6C332C63C5
:1058AC006F6C342C636F6C32342C636F6C32352C10
:1058BC00636F6C362C636F6C382C636F6C32372CC7
:1058CC00636F6C32362C636F6C31312C636F6C31BF
:1058DC00322C636F6C32382C636F6C31342C636FE9
:1058EC006C33332C636F6C372C636F6C31382C63D7
:1058FC006F6C31392C636F6C32392C636F6C3330B5
:10590C002C636F6C31362C636F6C31372C636F6C7E
:10591C00352C636F6C32302C636F6C32310D0A0096
:10592C00436F6E74656E742D446973706F73697414
:10593C00696F6E3A20666F726D2D646174613B20E5
:10594C006E616D653D2266696C65223B2066696CF3
:10595C00656E616D653D22746573742E7478742266
:10596C000D0A00436F6E74656E742D547970653A30
:10597C0020746578742F706C61696E0D0A0D0A00C5
:10598C000D0A25642C2025642C2025642C202564EC
:10599C002C2025640D0A0041542B4349505354418B
:1059AC005455530D0A003A34003A33002A2F004361
:1059BC006F6E74656E742D547970653A20617070D9
:1059CC006C69636174696F6E2F782D7777772D66AC
:1059DC006F726D2D75726C656E636F6465640D0A04
:1059EC0000766563746F723D00266865616465724C
:0659FC003D00455252007F
:00000001FF
